S0120000746573746D61737465722E73726563C6
S1130000BEC00000D3C00000D1C00000CFC00000BB
S1130010CDC00000CBC00000C9C00000C7C00000B4
S1130020C5C00000C3C00000C1C00000BFC00000C4
S1130030BDC00000BBC00000B9C00000B7C00000D4
S1130040B5C00000B3C00000B1C00000AFC00000E4
S1130050ADC00000ABC00000A9C00000A7C00000F4
S1130060A5C0000094C20000A1C000009FC0000011
S11300709DC000009BC0000099C0000097C0000014
S113008095C0000093C0000091C000008FC0000024
S11300908DC000008BC0000089C0000087C0000034
S11300A085C0000083C0000081C000007FC0000044
S11300B07DC000007BC0000079C0000077C0000054
S11300C075C0000073C0000071C000006FC0000064
S11300D06DC000006BC0000069C0000067C0000074
S11300E065C000008102C6028B02C602C602A902D4
S11300F0C602C602C602B302C602BD02C602C602D8
S1130100C602C602C602C602C602C602C602C602AB
S1130110C602C602C602C602C602C602C602C6029B
S1130120C602C602C602C602C602C602C602C6028B
S1130130C602C602C602C602C602C602C602C6027B
S1130140C602C602C602C602C602C602C602C6026B
S11301506D02C602C60277029F02C602C602C6022A
S1130160C602C602C602C602C602C602C602C6024B
S11301709502C6026302C602C602C60259021124CF
S11301801FBECFEFD1E2DEBFCDBF00E00CBF12E057
S1130190A0E0B2E0E2E4F6E000E00BBF02C00790AA
S11301A00D92A030B107D9F7AFD049C229CF109230
S11301B0B90088E48093B80084E08093BC0008957B
S11301C0AF92BF92DF92EF92FF920F931F93CF9360
S11301D0DF93CDB7DEB72F970FB6F894DEBF0FBE0F
S11301E0CDBFECEBF0E090819062908390819923F5
S11301F0ECF79091B9009983880F8F5F8093BB00CF
S113020084E88093BC00ECEBF0E080818823ECF779
S11302108091B9008A838091BB00DB018C9390E0CC
S113022050E041505109ECEBF0E00F2EF4ECEF2ECE
S1130230F02D0F2EF4E8DF2EF02D09EB10E00F2E39
S1130240FBEBAF2EB12CF02D292F30E0241735070E
S113025011F4D08201C0E08280818823ECF7D801B8
S11302608C91A1E0B0E0AC0FBD1F2A0F3B1FD90158
S11302708C93D501FC909B01290F311DD901FC926F
S11302809F5F803509F384E98093BC002F960FB6F5
S1130290F894DEBF0FBECDBFDF91CF911F910F91B8
S11302A0FF90EF90DF90BF90AF900895ECEBF0E0FB
S11302B090819062908390819923ECF7880F8093CA
S11302C0BB0084E88093BC00ECEBF0E080818823E1
S11302D0ECF781E08093BB0084E88093BC00ECEBF6
S11302E0F0E080818823ECF784E98093BC000895D2
S11302F01092C50087E68093C40088E98093C1000A
S113030086E08093C200089583E08BB9F1DF4FDF6C
S113031078946EE188E0CADF2FEF81EE94E02150FB
S113032080409040E1F700C00000F3CFE0ECF0E043
S1130330908195FFFDCF8093C6000895CF93DF93FE
S1130340CDB7DEB72A970FB6F894DEBF0FBECDBF88
S113035062E080E6ABDF42E0BE016F5F7F4F80E684
S11303602FDF898190E0982F88272A81820F911DA1
S11303706AE070E035D1CB012A960FB6F894DEBF5F
S11303800FBECDBFDF91CF9108950F931F93CF93ED
S1130390DF93EC01D3DFC80FD91FC73681E0D8073C
S11303A064F0C856D1401AC06EE088E07FDF8FE366
S11303B09CE90197F1F700C00000C0DF8C179D078E
S11303C09CF360E088E072DF1FC06EE088E06EDFBF
S11303D08FE39CE90197F1F700C00000AFDF8E01C5
S11303E0C817D90794F309C06EE088E05FDF8FE394
S11303F09CE90197F1F700C00000A0DF8017910786
S11304009CF360E088E052DFDF91CF911F910F9160
S113041008950F931F93CF93DF93EC018FDF8C1B11
S11304209D0BEC011816190664F0C859DE4F1AC06A
S11304306DE088E03BDF8FE39CE90197F1F700C0B2
S113044000007CDFC817D9079CF360E088E02EDF4A
S11304501FC06DE088E02ADF8FE39CE90197F1F784
S113046000C000006BDF8E018C179D0794F309C058
S11304706DE088E01BDF8FE39CE90197F1F700C092
S113048000005CDF081719079CF360E088E00EDFCA
S1130490DF91CF911F910F91089590E0FC01BB97DC
S11304A0ED34F10508F072C08827EE58FF4F8F4FE6
S11304B0AAC089E03BDF87E739DF8DE037DF61E001
S11304C088E0F4CE089589E031DF83E72FDF8DE003
S11304D02DDF62E088E0EACE089589E027DF81E637
S11304E025DF8DE023DF63E088E0E0CE089589E036
S11304F01DDF84E61BDF8DE019DF64E088E0D6CEE3
S1130500089589E013DF8BE211DF8DE00FDF65E0F2
S113051088E0CCCE089589E009DF8DE207DF8DE025
S113052005DF66E088E0C2CE089589E0FFDE81E75A
S1130530FDDE8DE0FBDE67E088E0B8CE089589E05B
S1130540F5DE85E6F3DE8DE0F1DE68E088E0AECE30
S1130550089589E0EBDE80E3E9DE8DE0E7DE60E02C
S113056088E0A4CE089589E0E1DE84E3DFDE8DE057
S1130570DDDE84EB90E04DCF089589E0D7DE86E39D
S1130580D5DE8DE0D3DE84EB90E0FFCE08951F929C
S11305900F920FB60F9211240BB60F922F933F9325
S11305A04F935F936F937F938F939F93AF93BF9377
S11305B0EF93FF938091C60070DFFF91EF91BF919D
S11305C0AF919F918F917F916F915F914F913F91E7
S11305D02F910F900BBE0F900FBE0F901F90189588
S11305E097FB072E16F4009406D077FD08D013D09D
S11305F007FC05D03EF4909581959F4F0895709522
S113060061957F4F0895EE0FFF1F881F8BBF0790E2
S1130610F691E02D1994AA1BBB1B51E107C0AA1F38
S1130620BB1FA617B70710F0A61BB70B881F991F8F
S11306305A95A9F780959095BC01CD010895F89439
S1050640FFCFE6
S9030000FC
