S011000074657374736C6176652E7372656338
S11300000C942A000C9461010C9481010C94470017
S11300100C9447000C9447000C9447000C94470040
S11300200C9447000C9447000C9447000C94470030
S11300300C9447000C9447000C9447000C94470020
S11300400C9447000C9447000C9447000C94A500B2
S11300500C94470011241FBECFE5D8E0DEBFCDBF0E
S113006010E0A0E6B0E0E4EBF3E002C005900D92EE
S1130070A637B107D9F720E0A6E7B0E001C01D928A
S1130080A43CB207E1F70E942A010C94D8010C9415
S11300900000662359F0FC01AEEAB0E09C01260F93
S11300A0311D91919D93E217F307D9F78FEF809358
S11300B09F000895089511B890E290B995E496BF11
S11300C0880F82B9089581B1803AD1F028F480363E
S11300D041F0803849F035C0883A21F1883B59F124
S11300E030C010929E002DC0E0919E0081E08E0FE2
S11300F080939E0083B1F0E0EA58FF4F808321C0D3
S1130100E091AC00F091AD0060919E0086E790E034
S11301100995E6E7F0E08AE890E01192E817F9071C
S1130120E1F70FC010929E00E091AA00F091AB009D
S1130130099583B906C0E091AA00F091AB00099536
S113014083B986B7806886BF08951F920F920FB651
S11301500F9211242F933F934F935F936F937F9349
S11301608F939F93AF93BF93EF93FF930E9463008A
S1130170FF91EF91BF91AF919F918F917F916F917B
S11301805F914F913F912F910F900FBE0F901F9051
S113019018955D9BFECF8CB90895CF93DF93EC0146
S11301A08881882331F021960E94C90089918111A8
S11301B0FBCFDF91CF91089510BC8CE089B91BB8B7
S11301C086E880BD88E18AB980E690E00E94CD008F
S11301D00895CF93DF93CDB7DEB761970FB6F89448
S11301E0DEBF0FBECDBF462F50E0BE016F5F7F4F15
S11301F00E949801CE0101960E94CD0061960FB62F
S1130200F894DEBF0FBECDBFDF91CF91089584B3C4
S11302108C6084BB81EA8FBD82ED90E097BD86BD82
S11302201BBC1ABC19BC18BC89E08EBD0895BC9ACD
S1130230C49A81B381BB85B7856085BF8BB7806C59
S11302408BBF1092A1001092A0001092A7001092F0
S1130250A60008950E94DC0088E00E945B0089E407
S113026090E09093AD008093AC008AE590E0909389
S1130270AB008093AA000E9407010E9417017894A2
S1130280CEEAD0E088816AE090E00E94E90089E04B
S11302900E94C90089816AE090E00E94E90089E037
S11302A00E94C900898190E0982F882728816AE0FC
S11302B0820F911D0E94E90082E790E00E94CD0028
S11302C0E1CF1F920F920FB60F9211248F939F9339
S11302D08091A0009091A10001969093A100809339
S11302E0A0008091A2009091A30001969093A30096
S11302F08093A2009F918F910F900FBE0F901F903B
S113030018951F920F920FB60F9211248F939F93FB
S11303108091A6009091A70001969093A7008093E6
S1130320A6009F918F910F900FBE0F901F9018956C
S11303304532510520F4423010F00C94A301FB0126
S11303401082CB010895BB274A3031F4992322F45B
S1130350BDE2909581959F4F0C94AF01BB27FB01A3
S11303605527AA27880F991FAA1FA41710F0A41BAA
S113037083955051B9F7A05DAA3308F0A95DA19304
S1130380009779F7B111B1931192CB010C94C80184
S1130390DC01FC01672F71917723E1F7329704C0E8
S11303A07C916D9370836291AE17BF07C8F3089573
S10703B0F894FFCFEB
S11303B47573617274207765726B74206E6F670A4B
S10903C40D000D0A00000B
S9030000FC
